{
  "contractName": "ComplexStorage",
  "abi": [
    {
      "constant": true,
      "inputs": [],
      "name": "string2",
      "outputs": [
        {
          "name": "",
          "type": "bytes32"
        }
      ],
      "payable": false,
      "stateMutability": "view",
      "type": "function"
    },
    {
      "constant": true,
      "inputs": [],
      "name": "storeduint1",
      "outputs": [
        {
          "name": "",
          "type": "uint256"
        }
      ],
      "payable": false,
      "stateMutability": "view",
      "type": "function"
    },
    {
      "constant": true,
      "inputs": [],
      "name": "singleDD",
      "outputs": [
        {
          "name": "deviceBrand",
          "type": "string"
        },
        {
          "name": "deviceYear",
          "type": "string"
        },
        {
          "name": "batteryWearLevel",
          "type": "string"
        }
      ],
      "payable": false,
      "stateMutability": "view",
      "type": "function"
    },
    {
      "constant": true,
      "inputs": [
        {
          "name": "",
          "type": "uint256"
        }
      ],
      "name": "uintarray",
      "outputs": [
        {
          "name": "",
          "type": "uint256"
        }
      ],
      "payable": false,
      "stateMutability": "view",
      "type": "function"
    },
    {
      "constant": true,
      "inputs": [
        {
          "name": "",
          "type": "uint256"
        }
      ],
      "name": "deviceDataArray",
      "outputs": [
        {
          "name": "deviceBrand",
          "type": "string"
        },
        {
          "name": "deviceYear",
          "type": "string"
        },
        {
          "name": "batteryWearLevel",
          "type": "string"
        }
      ],
      "payable": false,
      "stateMutability": "view",
      "type": "function"
    },
    {
      "constant": true,
      "inputs": [],
      "name": "constuint",
      "outputs": [
        {
          "name": "",
          "type": "uint256"
        }
      ],
      "payable": false,
      "stateMutability": "view",
      "type": "function"
    },
    {
      "constant": true,
      "inputs": [],
      "name": "string1",
      "outputs": [
        {
          "name": "",
          "type": "bytes16"
        }
      ],
      "payable": false,
      "stateMutability": "view",
      "type": "function"
    },
    {
      "constant": true,
      "inputs": [],
      "name": "string4",
      "outputs": [
        {
          "name": "",
          "type": "string"
        }
      ],
      "payable": false,
      "stateMutability": "view",
      "type": "function"
    },
    {
      "constant": true,
      "inputs": [],
      "name": "investmentsDeadlineTimeStamp",
      "outputs": [
        {
          "name": "",
          "type": "uint32"
        }
      ],
      "payable": false,
      "stateMutability": "view",
      "type": "function"
    },
    {
      "constant": true,
      "inputs": [],
      "name": "investmentsLimit",
      "outputs": [
        {
          "name": "",
          "type": "uint128"
        }
      ],
      "payable": false,
      "stateMutability": "view",
      "type": "function"
    },
    {
      "inputs": [],
      "payable": false,
      "stateMutability": "nonpayable",
      "type": "constructor"
    },
    {
      "constant": false,
      "inputs": [
        {
          "name": "x",
          "type": "string"
        }
      ],
      "name": "set",
      "outputs": [],
      "payable": false,
      "stateMutability": "nonpayable",
      "type": "function"
    }
  ],
  "bytecode": "0x6080604052600f60005561429f600160006101000a8154816fffffffffffffffffffffffffffffffff02191690836fffffffffffffffffffffffffffffffff16021790555042600160106101000a81548163ffffffff021916908363ffffffff1602179055507f7465737431000000000000000000000000000000000000000000000000000000600260006101000a8154816fffffffffffffffffffffffffffffffff0219169083700100000000000000000000000000000000900402179055507f74657374313233360000000000000000000000000000000000000000000000006003906000191690556040805190810160405280601581526020017f6c65747320737472696e6720736f6d657468696e670000000000000000000000815250600490805190602001906200013792919062000810565b503480156200014557600080fd5b5060008073bccc714d56bc0da0fd33d96d2a87b680dd6d0df6915073aee905fdd3ed851e48d22059575b9f4245a82b0490506058600560008473ffffffffffffffffffffffffffffffffffffffff1673ffffffffffffffffffffffffffffffffffffffff168152602001908152602001600020819055506063600560008373ffffffffffffffffffffffffffffffffffffffff1673ffffffffffffffffffffffffffffffffffffffff168152602001908152602001600020819055506060604051908101604052806040805190810160405280600b81526020017f6465766963654272616e6400000000000000000000000000000000000000000081525081526020016040805190810160405280600a81526020017f646576696365596561720000000000000000000000000000000000000000000081525081526020016040805190810160405280600981526020017f776561724c6576656c0000000000000000000000000000000000000000000000815250815250600660008473ffffffffffffffffffffffffffffffffffffffff1673ffffffffffffffffffffffffffffffffffffffff16815260200190815260200160002060008201518160000190805190602001906200031992919062000897565b5060208201518160010190805190602001906200033892919062000897565b5060408201518160020190805190602001906200035792919062000897565b509050506060604051908101604052806040805190810160405280600c81526020017f6465766963654272616e6432000000000000000000000000000000000000000081525081526020016040805190810160405280600b81526020017f646576696365596561723200000000000000000000000000000000000000000081525081526020016040805190810160405280600a81526020017f776561724c6576656c3200000000000000000000000000000000000000000000815250815250600660008373ffffffffffffffffffffffffffffffffffffffff1673ffffffffffffffffffffffffffffffffffffffff16815260200190815260200160002060008201518160000190805190602001906200047392919062000897565b5060208201518160010190805190602001906200049292919062000897565b506040820151816002019080519060200190620004b192919062000897565b509050506060604051908101604052806040805190810160405280600c81526020017f6465766963654272616e6433000000000000000000000000000000000000000081525081526020016040805190810160405280600b81526020017f646576696365596561723300000000000000000000000000000000000000000081525081526020016040805190810160405280600a81526020017f776561724c6576656c3300000000000000000000000000000000000000000000815250815250600960008201518160000190805190602001906200059092919062000897565b506020820151816001019080519060200190620005af92919062000897565b506040820151816002019080519060200190620005ce92919062000897565b509050506007611f409080600181540180825580915050906001820390600052602060002001600090919290919091505550600761232890806001815401808255809150509060018203906000526020600020016000909192909190915055506008600660008473ffffffffffffffffffffffffffffffffffffffff1673ffffffffffffffffffffffffffffffffffffffff1681526020019081526020016000209080600181540180825580915050906001820390600052602060002090600302016000909192909190915060008201816000019080546001816001161561010002031660029004620006c39291906200091e565b5060018201816001019080546001816001161561010002031660029004620006ed9291906200091e565b5060028201816002019080546001816001161561010002031660029004620007179291906200091e565b505050506008600660008373ffffffffffffffffffffffffffffffffffffffff1673ffffffffffffffffffffffffffffffffffffffff1681526020019081526020016000209080600181540180825580915050906001820390600052602060002090600302016000909192909190915060008201816000019080546001816001161561010002031660029004620007b09291906200091e565b5060018201816001019080546001816001161561010002031660029004620007da9291906200091e565b5060028201816002019080546001816001161561010002031660029004620008049291906200091e565b505050505050620009d4565b828054600181600116156101000203166002900490600052602060002090601f016020900481019282601f106200085357805160ff191683800117855562000884565b8280016001018555821562000884579182015b828111156200088357825182559160200191906001019062000866565b5b509050620008939190620009ac565b5090565b828054600181600116156101000203166002900490600052602060002090601f016020900481019282601f10620008da57805160ff19168380011785556200090b565b828001600101855582156200090b579182015b828111156200090a578251825591602001919060010190620008ed565b5b5090506200091a9190620009ac565b5090565b828054600181600116156101000203166002900490600052602060002090601f016020900481019282601f1062000959578054855562000999565b828001600101855582156200099957600052602060002091601f016020900482015b82811115620009985782548255916001019190600101906200097b565b5b509050620009a89190620009ac565b5090565b620009d191905b80821115620009cd576000816000905550600101620009b3565b5090565b90565b610c2d80620009e46000396000f3006080604052600436106100af576000357c0100000000000000000000000000000000000000000000000000000000900463ffffffff1680630ca0aa79146100b457806311f9c74d146100e757806328a20b5e146101125780634ed3885e1461027a5780636c0c1bcf146102e357806384eeda561461032457806397ba784f146104a2578063a7b2cfca146104cd578063a8d63ef91461051e578063df4fddf5146105ae578063eec65f29146105e5575b600080fd5b3480156100c057600080fd5b506100c9610634565b60405180826000191660001916815260200191505060405180910390f35b3480156100f357600080fd5b506100fc61063a565b6040518082815260200191505060405180910390f35b34801561011e57600080fd5b50610127610640565b60405180806020018060200180602001848103845287818151815260200191508051906020019080838360005b8381101561016f578082015181840152602081019050610154565b50505050905090810190601f16801561019c5780820380516001836020036101000a031916815260200191505b50848103835286818151815260200191508051906020019080838360005b838110156101d55780820151818401526020810190506101ba565b50505050905090810190601f1680156102025780820380516001836020036101000a031916815260200191505b50848103825285818151815260200191508051906020019080838360005b8381101561023b578082015181840152602081019050610220565b50505050905090810190601f1680156102685780820380516001836020036101000a031916815260200191505b50965050505050505060405180910390f35b34801561028657600080fd5b506102e1600480360381019080803590602001908201803590602001908080601f0160208091040260200160405190810160405280939291908181526020018383808284378201915050505050509192919290505050610820565b005b3480156102ef57600080fd5b5061030e6004803603810190808035906020019092919050505061083a565b6040518082815260200191505060405180910390f35b34801561033057600080fd5b5061034f6004803603810190808035906020019092919050505061085d565b60405180806020018060200180602001848103845287818151815260200191508051906020019080838360005b8381101561039757808201518184015260208101905061037c565b50505050905090810190601f1680156103c45780820380516001836020036101000a031916815260200191505b50848103835286818151815260200191508051906020019080838360005b838110156103fd5780820151818401526020810190506103e2565b50505050905090810190601f16801561042a5780820380516001836020036101000a031916815260200191505b50848103825285818151815260200191508051906020019080838360005b83811015610463578082015181840152602081019050610448565b50505050905090810190601f1680156104905780820380516001836020036101000a031916815260200191505b50965050505050505060405180910390f35b3480156104ae57600080fd5b506104b7610a5e565b6040518082815260200191505060405180910390f35b3480156104d957600080fd5b506104e2610a63565b60405180826fffffffffffffffffffffffffffffffff19166fffffffffffffffffffffffffffffffff1916815260200191505060405180910390f35b34801561052a57600080fd5b50610533610a86565b6040518080602001828103825283818151815260200191508051906020019080838360005b83811015610573578082015181840152602081019050610558565b50505050905090810190601f1680156105a05780820380516001836020036101000a031916815260200191505b509250505060405180910390f35b3480156105ba57600080fd5b506105c3610b24565b604051808263ffffffff1663ffffffff16815260200191505060405180910390f35b3480156105f157600080fd5b506105fa610b3a565b60405180826fffffffffffffffffffffffffffffffff166fffffffffffffffffffffffffffffffff16815260200191505060405180910390f35b60035481565b60005481565b6009806000018054600181600116156101000203166002900480601f0160208091040260200160405190810160405280929190818152602001828054600181600116156101000203166002900480156106da5780601f106106af576101008083540402835291602001916106da565b820191906000526020600020905b8154815290600101906020018083116106bd57829003601f168201915b505050505090806001018054600181600116156101000203166002900480601f0160208091040260200160405190810160405280929190818152602001828054600181600116156101000203166002900480156107785780601f1061074d57610100808354040283529160200191610778565b820191906000526020600020905b81548152906001019060200180831161075b57829003601f168201915b505050505090806002018054600181600116156101000203166002900480601f0160208091040260200160405190810160405280929190818152602001828054600181600116156101000203166002900480156108165780601f106107eb57610100808354040283529160200191610816565b820191906000526020600020905b8154815290600101906020018083116107f957829003601f168201915b5050505050905083565b8060049080519060200190610836929190610b5c565b5050565b60078181548110151561084957fe5b906000526020600020016000915090505481565b60088181548110151561086c57fe5b9060005260206000209060030201600091509050806000018054600181600116156101000203166002900480601f0160208091040260200160405190810160405280929190818152602001828054600181600116156101000203166002900480156109185780601f106108ed57610100808354040283529160200191610918565b820191906000526020600020905b8154815290600101906020018083116108fb57829003601f168201915b505050505090806001018054600181600116156101000203166002900480601f0160208091040260200160405190810160405280929190818152602001828054600181600116156101000203166002900480156109b65780601f1061098b576101008083540402835291602001916109b6565b820191906000526020600020905b81548152906001019060200180831161099957829003601f168201915b505050505090806002018054600181600116156101000203166002900480601f016020809104026020016040519081016040528092919081815260200182805460018160011615610100020316600290048015610a545780601f10610a2957610100808354040283529160200191610a54565b820191906000526020600020905b815481529060010190602001808311610a3757829003601f168201915b5050505050905083565b601081565b600260009054906101000a90047001000000000000000000000000000000000281565b60048054600181600116156101000203166002900480601f016020809104026020016040519081016040528092919081815260200182805460018160011615610100020316600290048015610b1c5780601f10610af157610100808354040283529160200191610b1c565b820191906000526020600020905b815481529060010190602001808311610aff57829003601f168201915b505050505081565b600160109054906101000a900463ffffffff1681565b600160009054906101000a90046fffffffffffffffffffffffffffffffff1681565b828054600181600116156101000203166002900490600052602060002090601f016020900481019282601f10610b9d57805160ff1916838001178555610bcb565b82800160010185558215610bcb579182015b82811115610bca578251825591602001919060010190610baf565b5b509050610bd89190610bdc565b5090565b610bfe91905b80821115610bfa576000816000905550600101610be2565b5090565b905600a165627a7a72305820f1c60d329211f56623fdb330a758f10ddddffd6ddcfa01a9a6c5a9d2d705e7e00029",
  "source": "pragma solidity ^0.4.0;\n\ncontract ComplexStorage {\n\n\tuint public storeduint1 = 15;\n\tuint public constant constuint = 16;\n\tuint128 public investmentsLimit = 17055;\n\tuint32 public investmentsDeadlineTimeStamp = uint32(now);\n\n\tbytes16 public string1 = \"test1\";\n\tbytes32 public string2 = \"test1236\";\n\tstring public string4 = \"lets string something\";\n\n\tmapping (address => uint) uints1;\n\tmapping (address => DeviceData) structs1;\n\n\tuint[] public uintarray;\n\tDeviceData[] public deviceDataArray;\n    DeviceData public singleDD;\n\n\tstruct DeviceData {\n\t\tstring deviceBrand;\n\t\tstring deviceYear;\n\t\tstring batteryWearLevel;\n\t}\n\tfunction set(string x) public {\n    \tstring4 = x;\n\n \t }\n\n\tconstructor() public {\n\t\taddress address1 = 0xbCcc714d56bc0da0fd33d96d2a87b680dD6D0DF6;\n\t\taddress address2 = 0xaee905FdD3ED851e48d22059575b9F4245A82B04;\n\n\t\tuints1[address1] = 88;\n\t\tuints1[address2] = 99;\n\n\t\tstructs1[address1] = DeviceData(\"deviceBrand\", \"deviceYear\", \"wearLevel\");\n\t\tstructs1[address2] = DeviceData(\"deviceBrand2\", \"deviceYear2\", \"wearLevel2\");\n        singleDD = DeviceData(\"deviceBrand3\", \"deviceYear3\", \"wearLevel3\");\n\n\t\tuintarray.push(8000);\n\t\tuintarray.push(9000);\n\n\t\tdeviceDataArray.push(structs1[address1]);\n\t\tdeviceDataArray.push(structs1[address2]);\n\t}\n\n}",
  "sourcePath": "/Users/ted/project/school/LuanVanBlockChain/BlockChainManagement/contracts/ComplexStorage.sol",
  "compiler": {
    "name": "solc",
    "version": "0.4.24+commit.e67f0147.Emscripten.clang"
  },
  "schemaVersion": "3.0.11",
  "updatedAt": "2019-08-11T09:20:15.829Z",
  "devdoc": {
    "methods": {}
  },
  "userdoc": {
    "methods": {}
  }
}