{
  "contractName": "SimpleStorage",
  "abi": [
    {
      "constant": true,
      "inputs": [],
      "name": "storedData",
      "outputs": [
        {
          "name": "",
          "type": "uint256"
        }
      ],
      "payable": false,
      "stateMutability": "view",
      "type": "function",
      "signature": "0x2a1afcd9"
    },
    {
      "anonymous": false,
      "inputs": [
        {
          "indexed": false,
          "name": "_message",
          "type": "uint256"
        }
      ],
      "name": "StorageSet",
      "type": "event",
      "signature": "0x5af27279c82c15d19a0294e50189752a91aa6b5db57e6451e74709b740dcc05e"
    },
    {
      "constant": false,
      "inputs": [
        {
          "name": "x",
          "type": "uint256"
        }
      ],
      "name": "set",
      "outputs": [],
      "payable": false,
      "stateMutability": "nonpayable",
      "type": "function",
      "signature": "0x60fe47b1"
    }
  ],
  "bytecode": "0x608060405234801561001057600080fd5b50610115806100206000396000f3006080604052600436106049576000357c0100000000000000000000000000000000000000000000000000000000900463ffffffff1680632a1afcd914604e57806360fe47b1146076575b600080fd5b348015605957600080fd5b50606060a0565b6040518082815260200191505060405180910390f35b348015608157600080fd5b50609e6004803603810190808035906020019092919050505060a6565b005b60005481565b806000819055507f5af27279c82c15d19a0294e50189752a91aa6b5db57e6451e74709b740dcc05e6000546040518082815260200191505060405180910390a1505600a165627a7a7230582061c34a3144f896622d6e78d8c2c02cbeb91eaa0b1601fb9b1552ca1a04759bb20029",
  "source": "pragma solidity ^0.4.24;\n\ncontract SimpleStorage {\n  event StorageSet(\n    uint _message\n  );\n\n  uint public storedData;\n\n  function set(uint x) public {\n    storedData = x;\n\n     emit StorageSet(storedData);\n  }\n}\n",
  "sourcePath": "/Users/smith/projects/fetch/blockchain/my_blockchain/contracts/SimpleStorage.sol",
  "compiler": {
    "name": "solc",
    "version": "0.4.24+commit.e67f0147.Emscripten.clang"
  },
  "schemaVersion": "3.0.0",
  "updatedAt": "2019-01-25T10:25:23.944Z",
  "devdoc": {
    "methods": {}
  },
  "userdoc": {
    "methods": {}
  }
}